:100000000C94CB000C94092E0C943A2E0C946B2E6D
:100010000C949C2E0C94CD2E0C94FE2E0C942F2F11
:100020000C94602F0C94F5000C94F5000C94F500E2
:100030000C94EF020C94F5000C94F5000C94D5018F
:100040000C94F5000C94F5000C94F5000C94F5005C
:100050000C94F5000C94F5000C94F5000C94B00190
:100060000C94F5000C94002A0C94F5000C94F50007
:100070000C94F5000C94F5000C94F5000C94F5002C
:100080000C94F5000C94F5000C94F5000C94F5001C
:100090000C94412A0C94F5000C94F5000C94A92CB6
:1000A0000C94F5000C94F5000C94F5000C94F500FC
:1000B0000C94F5000C94F5000C94F5000C94F500EC
:1000C0000C94F5000C94F5000C94F5000021242705
:1000D0002A2D3033002225282B2E313400202326D0
:1000E000292C2F3205050505030303030101010433
:1000F00004030606060606060606010405010501B8
:1001000003020202020202010202050504040304C2
:1001100004010304070707010208101020408004AF
:1001200008102040020204081020408001028020B4
:100130004004200101020408102001408040800199
:1001400002080408800410040201000008090000ED
:10015000000000000000000000000000000000009F
:10016000000000000000000000000000000000008F
:1001700000000000000000000000000000008F03ED
:100180006004A928C72BCE2BDD2BDE2B6F2CA82CCF
:10019000912FCF2FD42F11241FBECFEFD1E2DEBF7E
:1001A000CDBF1BE0A0E0B2E0E2EDF2E600E00BBF65
:1001B00002C007900D92A637B107D9F717E1A6E75D
:1001C000BBE001C01D92A833B107E1F711E0C6E919
:1001D000D1E004C02297FE010E943B30CE37D10708
:1001E000C9F70E94A9010C9467310C9400008BE7B9
:1001F0009BE00E94B4278091550D882391F487E7F6
:100200009BE060E072E00E94F40340916C0F50E0CC
:1002100060E070E087E79BE020E130E00E94E903C6
:1002200006C087E79BE06DE072E00E94FA0382E47B
:100230009EE06BE67BE00E94AA2680911C1088233A
:1002400029F487E79BE063E272E004C087E79BE064
:1002500060E372E00E94FA0382E49EE061E00E94A3
:10026000362880911C10882329F487E79BE06BE4F3
:1002700072E004C087E79BE06CE572E00E94FA033D
:1002800082E49EE062E00E94B22880911C108823E4
:1002900029F487E79BE06AE772E004C087E79BE008
:1002A00066E972E00E94FA036091730B7091740B1F
:1002B00082E49EE00E94692680911C10882329F424
:1002C00087E79BE067EB72E004C087E79BE067ECA1
:1002D00072E00E94FA0382E49EE061E00E949628A8
:1002E00080911C10882329F487E79BE06FED72E072
:1002F00004C087E79BE065EF72E00E94FA0382E4A6
:100300009EE00E94972780911C10882329F487E79C
:100310009BE068E173E004C087E79BE06AE273E07A
:100320000E94FA0368EB7BE080E090E00E941202FA
:1003300008950F931F9302E41EE0C80162E041E0BC
:1003400021E00E948729C8010E945A281F910F911D
:1003500008950E945A020E9499010E94F700FDCF61
:100360001F920F920FB60F9211248F939F93AF930A
:10037000BF938091AC149091AD14A091AE14B09144
:10038000AF140196A11DB11D8093AC149093AD14D0
:10039000A093AE14B093AF14BF91AF919F918F9182
:1003A0000F900FBE0F901F9018951F920F920FB6CF
:1003B0000F9211248F939F93AF93BF938091B014AA
:1003C0009091B114A091B214B091B3140196A11DF3
:1003D000B11D8093B0149093B114A093B214B09354
:1003E000B314BF91AF919F918F910F900FBE0F905B
:1003F0001F9018956091AC147091AD148091AE145B
:100400009091AF1427E0660F771F881F991F2A95D8
:10041000D1F72EE330E040E050E00E94FC2FCA010B
:10042000B9010895AF92BF92CF92DF92EF92FF92FF
:100430000F931F935B016C016091AC147091AD142C
:100440008091AE149091AF1447E0660F771F881F1C
:10045000991F4A95D1F72EE330E040E050E00E942A
:10046000FC2F79018A016091AC147091AD148091D8
:10047000AE149091AF1437E0660F771F881F991F55
:100480003A95D1F72EE330E040E050E00E94FC2F97
:100490002E193F09400B510B2A153B054C055D05F4
:1004A00010F31F910F91FF90EF90DF90CF90BF90CE
:1004B000AF900895789484B7877F84BF1092AC146E
:1004C0001092AD141092AE141092AF1484B58260E5
:1004D00084BD84B5816084BD85B5826085BD85B5E8
:1004E000816085BDEEE6F0E0808181608083E1E897
:1004F000F0E0808182608083808181608083E0E899
:10050000F0E0808181608083E1EBF0E080818460B5
:100510008083E1E9F0E0808184608083E0EBF0E0BB
:10052000808181608083E0E9F0E080818160808368
:10053000E4E6F0E080818E7F8083ECE7F0E080816C
:100540008F778083808180648083EAE7F0E0808118
:1005500084608083808182608083808180688083E2
:100560001092C1001092C90008959091760B982BBB
:100570009093760B80FF32C0809164008E7F8093D1
:10058000640080917C008F7780937C0080917C0058
:10059000806480937C0080917A00846080937A00EC
:1005A00080917A00826080937A0080917A008068DE
:1005B00080937A00809164008F77809364008091AB
:1005C00064008B7F80936400809164008D7F8093B2
:1005D0006400809165008E7F8093650008951F926E
:1005E0000F920FB60F920BB60F9211242F933F93D9
:1005F0004F935F936F937F938F939F93AF93BF932B
:10060000EF93FF93F89481E08093750BE0E6F0E0C0
:1006100080818068808380818F7B808383E060E03D
:100620000E9444037894FF91EF91BF91AF919F9105
:100630008F917F916F915F914F913F912F910F908B
:100640000BBE0F900FBE0F901F901895282F30E013
:10065000C901895E9E4FFC0194912C513F4FF901D5
:100660008491882381F0E82FF0E0E453FF4FE49178
:10067000F0E0662329F48081909589238083089592
:100680008081892B80830895482F50E0CA01865BC2
:100690009E4FFC012491CA01895E9E4FFC019491FA
:1006A0004C515F4FFA0134913323C1F1222331F1D0
:1006B000233021F4809180008F7705C0243031F4FD
:1006C000809180008F7D8093800018C0213019F4C4
:1006D00084B58F7704C0223021F484B58F7D84BD2A
:1006E0000DC0263021F48091B0008F7705C02730EF
:1006F00029F48091B0008F7D8093B000E32FF0E06B
:10070000EC52FF4FE491F0E0662329F4808190954C
:100710008923808308958081892B80830895109296
:10072000770B1092790B08950F931F938C018DE036
:10073000F80160810E94822A8AE0F80160810E94AB
:10074000822A1F910F910895EF92FF920F931F93AA
:10075000CF93DF93EC017A018B0177FF0CC08DE220
:1007600068810E94822A10950095F094E094E11C23
:10077000F11C011D111DC801B7012AE030E040E065
:1007800050E008810E94A92ADF91CF911F910F911B
:10079000FF90EF9008950F931F93FC01DA018B01F6
:1007A0002115310529F4842F60810E94822A0EC010
:1007B0002A30310519F40E94A40308C030E040E05B
:1007C00050E0BD01C80100810E94A92A1F910F912C
:1007D00008950F931F938C010E94CB03C8010E94C0
:1007E00094031F910F910895FC01CB0160810E9439
:1007F000932A08950F931F938C01CB01F801608118
:100800000E94932AC8010E9494031F910F9108959A
:10081000FC0180810E94EC290895FC0180810E94E6
:10082000B1290895FC0180810E948D290895FC0161
:100830006183613019F0633099F514C08081882399
:1008400011F486E10DC086E061E00E94260386E097
:1008500061E00E9444038AE261E00E9426038AE28A
:1008600061E005C08081882329F486E160E00E9470
:100870004403089585EA91E160E040E00E94892CFC
:1008800086E061E00E94260386E060E00E94440367
:100890008AE261E00E9426038AE260E00E9444034B
:1008A0000895FC01262F608360E070E0CB01BA015F
:1008B000422F0E944B2B86E161E00E94260308959F
:1008C0001092310E1092320E1092350E1092370E99
:1008D00008950F931F93CF93DF93DC018B01EC01FD
:1008E000C658DD4F1982188240E0BE0106C04F5F36
:1008F0002F5F3F4FFB0131832083FB01208131813A
:10090000F801E20FF31F8081882389F7469583E081
:1009100090E09983888390E0ED01C658DD4F50E068
:100920000BC0FD01E20FF31FE857FD4F8081980FC8
:100930002F5F3F4F3983288328813981241735075A
:1009400080F3892F8095A40FB51FA957BD4F8C93B5
:10095000DF91CF911F910F910895DF92EF92FF9257
:100960000F931F93CF93DF93890180E090E0F3E131
:10097000DF2EEEE7EE2E31E1F32E37C02F5F3F4F33
:100980009C919D3731F01196319624173507B0F3BD
:100990002DC02417350750F5E9012196E60FF71F02
:1009A0008181833361F0843318F4813369F405C0A5
:1009B0008D3549F08E3541F404C0FC9205C0DC92BF
:1009C00003C0EC9201C09C9341505040F901E00FEC
:1009D000F11FE60FF71F02C0818180832F5F3F4F19
:1009E0003196CE0124173507B8F39C01241735073B
:1009F00038F4F901E00FF11FDB01AE0FBF1FC0CFCC
:100A0000DF91CF911F910F91FF90EF90DF900895AC
:100A1000EF92FF920F931F93CF93DF938C01EB0123
:100A20007A01FC01E658FD4F2D5F3F4F3183208353
:100A300023503040A0E0B0E0AF010BC0FE01E60F54
:100A4000F71F8081A80FB11D6F5F7F4FFA0171837F
:100A50006083FA01608171816E157F0578F3AF3F85
:100A6000B10521F0AF3F11F081E008C008521E4FE0
:100A7000C20FD31F8C81F801808380E0DF91CF917A
:100A80001F910F91FF90EF900895EF92FF920F93B7
:100A90001F93CF93DF93EC01CA5BDD4FE8808DEEAF
:100AA000E80E24978881C254D240813009F0C9C031
:100AB000CD5DDE4FF880C352D140FA948E010658C6
:100AC0001D4FD8011D921C92B8012F2D30E087E2F6
:100AD00090E0289FA001299F500D389F500D1124B0
:100AE0004C0F5D1F11C0FA01EA0FFB1FE05AFF4FC8
:100AF000AC0FBD1FA85BBD4F8C918083FB01808133
:100B00009181019691838083FB01A081B181A23004
:100B1000B10548F3D8011D921C92AE0146585D4FB5
:100B20002F2D30E087E290E0289FB001299F700DC3
:100B3000389F700D11246C0F7D1F11C0FB01EA0F4F
:100B4000FB1FEE59FF4FAC0FBD1FA65BBD4F8C9135
:100B50008083FA0180819181019691838083FA01DB
:100B6000A081B181A430B10548F311821082BE0189
:100B700066587D4F2F2D30E087E290E0289FA0013E
:100B8000299F500D389F500D11244C0F5D1F12C02E
:100B9000FA01EA0FFB1FEA59FF4FAC0FBD1FA25B22
:100BA000BD4F8C918083DB018D919C9111970196B3
:100BB0008D939C93FB01A081B181A430B10540F3DA
:100BC00087E290E0289FF001299FF00D389FF00DFB
:100BD0001124EC0FFD1FEA57FF4FCE5ADD4F8881DD
:100BE000C255D2408083E658F040AE014A5B5D4F6B
:100BF000DA018D919C910D9720F1DB011D921C92E1
:100C00009E0126583D4FBA01AF0111C0FA01EA0F0B
:100C1000FB1FE659FF4FAC0FBD1FAD5ABD4F8C9166
:100C20008083F90180819181019691838083F9010C
:100C3000A081B181FB01808191810C97A817B90730
:100C400028F3CE5BDD4F8881C254D240825084307D
:100C500008F047C1CD5DDE4FF880C352D140FA9411
:100C60008E0106581D4FD8011D921C92B8012F2DE0
:100C700030E087E290E0289FA001299F500D389F27
:100C8000500D11244C0F5D1F11C0FA01EA0FFB1F1C
:100C9000E05AFF4FAC0FBD1FA85BBD4F8C91808306
:100CA000FB0180819181019691838083FB01A0816A
:100CB000B181A230B10548F3D8011D921C92AE015A
:100CC00046585D4F2F2D30E087E290E0289FB0011D
:100CD000299F700D389F700D11246C0F7D1F11C05E
:100CE000FB01EA0FFB1FEE59FF4FAC0FBD1FA65BC8
:100CF000BD4F8C918083FA0180819181019691830F
:100D00008083FA01A081B181A430B10548F311823A
:100D10001082AE0146585D4F2F2D30E087E290E003
:100D2000289FB001299F700D389F700D11246C0F02
:100D30007D1F12C0FB01EA0FFB1FEA59FF4FAC0FEA
:100D4000BD1FA25BBD4F8C918083DA018D919C9178
:100D5000119701968D939C93FA01A081B181A430E3
:100D6000B10540F311821082AE0146585D4F0E2D41
:100D700010E02F2D30E087E290E0289FB001299FFE
:100D8000700D389F700D11246C0F7D1F12C0FB0178
:100D9000EA0FFB1FE659FF4FAC0FBD1FAE5ABD4F08
:100DA0008C918083DA018D919C91119701968D939E
:100DB0009C93FA01A081B181A017B10740F3118281
:100DC0001082BE0166587D4F2F2D30E087E290E003
:100DD000289FA001299F500D389F500D11244C0FC2
:100DE0005D1F14C0FA01EA0FFB1FE258FF4FAC0F62
:100DF000BD1FA00FB11FAD5ABD4F8C918083DB0189
:100E00008D919C91119701968D939C93FB01A081EC
:100E1000B181A230B10530F387E290E0289FD00184
:100E2000299FB00D389FB00D1124AC0FBD1FA058E5
:100E3000BF4FFE01EE0DF11DEB5AFD4F81918D93D9
:100E400080818C93A158B040FB0111821082AE01C9
:100E500046585D4FBD0114C0FB01EA0FFB1FEE5762
:100E6000FF4FAC0FBD1FA00FB11FA95ABD4F8C91F2
:100E70008083DA018D919C91119701968D939C93BB
:100E8000FA01A081B181A230B10530F31182108244
:100E9000BE0166587D4F87E290E0289FA001299F00
:100EA000500D389F500D11244C0F5D1F14C0FA01D6
:100EB000EA0FFB1FEC57FF4FAC0FBD1FA00FB11F78
:100EC000A75ABD4F8C918083DB018D919C91119726
:100ED00001968D939C93FB01A081B181A230B10555
:100EE00030F3DF91CF911F910F91FF90EF90089514
:100EF000CF92DF92EF92FF920F931F93CF93DF93E6
:100F0000EC016B017A01B901FC01E658FD4F0D5F60
:100F10001F4F1183008303501040A0E0B0E09F01F9
:100F20000BC0F601E40FF51F8081A80FB11D4F5FC4
:100F30005F4FF90151834083F90140815181461788
:100F4000570778F3AF3FB10519F0AF3F09F05AC02A
:100F5000F601E00FF11F9581D70115968C91159739
:100F6000981709F04FC0968116968C91981709F042
:100F700049C09B01201B310B2930310529F48781A1
:100F8000882309F442C03EC087818823D9F5FE0139
:100F9000E658FD4F11821082BF012950304012C027
:100FA000FE01E40FF51FE85BFD4FD601A40FB51F4E
:100FB000A00FB11F18968C9180834F5F5F4FFB018C
:100FC00051834083DB014D915C914217530740F3FD
:100FD000CA5BDD4F39832883C654D240F70185812F
:100FE0008E3491F48681843479F42230310530F0E6
:100FF000FE01ED5DFE4F80818F5F8083CE010E94F8
:10100000450502C081E001C080E0DF91CF911F91D2
:101010000F91FF90EF90DF90CF900895FC01E6587C
:10102000FD4F11821082DF010BC0FC01E20FF31FA4
:10103000E857FD4F10822F5F3F4F11963C932E9340
:101040002D913C9111972E31310578F30895CF926F
:10105000DF92EF92FF920F931F93CF93DF936C0178
:10106000FC01E658FD4F118210828F01E62EFF240D
:10107000E701CC0FDD1FCC0FDD1FCE0DDF1D1CC027
:10108000EC0FFD1F3B96EE0FFF1FEC0DFD1D808149
:1010900091810E940831D8018D919C911197FE0198
:1010A000E80FF91F3B96EE0FFF1FEC0DFD1D11829F
:1010B000108201968D939C93D801ED91FC91E530BF
:1010C000F105F0F28701000F111F0C0D1D1D075BCC
:1010D0001F4FD801ED91FC9115AA16AA17AA10AEC0
:1010E000CF010E940831F80111821082F601ED5AF9
:1010F000FF4F808181508083DF91CF911F910F91AD
:10110000FF90EF90DF90CF900895AF92BF92CF9273
:10111000DF92FF920F931F93CF93DF936C01FF2415
:1011200060E070E08C0106581D4FD8016D937C93F0
:10113000EB01AA96CC0FDD1FCC0DDD1D23C05F0196
:101140000894A11CB11CA881B981A555BF4FBB96BD
:10115000EE0FFF1FEC0DFD1D0190F081E02DE55518
:10116000FF4F2D913D914D915C9180819181A281A4
:10117000B38182179307A407B50754F4F394F801D9
:10118000B182A082D801ED91FC91E430F105B8F272
:10119000B4E0FB1621F4F62E65E070E002C0F62EF6
:1011A000F3946F5F7F4F6530710508F4BECF0F2D4C
:1011B00010E0065D1F4F000F111F0C0D1D1DF801E3
:1011C000808191810E940831D8011D921C928F2D3F
:1011D000DF91CF911F910F91FF90DF90CF90BF9043
:1011E000AF900895AF92BF92CF92DF92FF920F938C
:1011F0001F93CF93DF936C01FF2460E070E08C01BC
:1012000006581D4FD8016D937C93EB01AA96CC0F25
:10121000DD1FCC0DDD1D23C05F010894A11CB11C96
:10122000A881B981A555BF4FBB96EE0FFF1FEC0DEE
:10123000FD1D0190F081E02DE555FF4F2D913D9171
:101240004D915C9180819181A281B38128173907EA
:101250004A075B0754F4F394F801B182A082D801E5
:10126000ED91FC91E430F105B8F2B4E0FB1621F405
:10127000F62E65E070E002C0F62EF3946F5F7F4FAC
:101280006530710508F4BECF0F2D10E0065D1F4FCD
:10129000000F111F0C0D1D1DF801808191810E940E
:1012A0000831D8011D921C928F2DDF91CF911F9193
:1012B0000F91FF90DF90CF90BF90AF9008950F9364
:1012C0001F93CF93DF938C01FC01E658FD4F1182F1
:1012D0001082EF0116C0BA96EE0FFF1FE00FF11F4C
:1012E000808191810E940831888199818A96FC01D0
:1012F000EE0FFF1FE00FF11F118210828997998373
:101300008883E881F981E530F10528F3DF91CF91F9
:101310001F910F910895AF92BF92CF92DF92EF92FB
:10132000FF920F931F93CF93DF93EC0109E4A02E5C
:10133000B12CA80EB91EEE24FF241AE7C12E12E02C
:10134000D12EC80ED91ED6011D921C928701000F06
:10135000111F000F111F0E0D1F1D1CC0E00FF11FEC
:101360003B96EE0FFF1FEC0FFD1F808191810E94C5
:101370000831F60180819181F801E80FF91F3B9651
:10138000EE0FFF1FEC0FFD1F118210820196D60198
:101390008D939C93D601ED91FC91E530F105F0F22F
:1013A000D501ED91FC9115AA16AA17AA10AECF018E
:1013B0000E940831F501119211925F010894E11C1D
:1013C000F11CF5E0EF16F10409F0BDCFCD5ADF4F67
:1013D0001882C65ADD4F188222961882DF91CF916B
:1013E0001F910F91FF90EF90DF90CF90BF90AF9043
:1013F0000895AF92BF92CF92DF92EF92FF920F9338
:101400001F93CF93DF93EC01FC01E355FD4F108256
:1014100060E070E01AE7A12E12E0B12EA80EB91E0E
:101420007F01D5016D937C938B01000F111F0C0F71
:101430001D1F075B1F4F28C0D8018D919C916F0124
:101440000894C11CD11CF601EE0FFF1FEC0FFD1F0D
:10145000E75BFF4F0190F081E02DDC01D5962D91E7
:101460003D914D915C91D89785A996A9A7A9B0AD5A
:10147000281739074A075B076CF4F70180818F5FF3
:101480008083D501CD92DC92D501ED91FC91E430C1
:10149000F10590F2F7018081843021F4608365E0EA
:1014A00070E004C0862F8F5FD7018C936F5F7F4FF2
:1014B0006530710508F4B5CFFE01E658FD4F118285
:1014C00010828F017DEAE72E72E0F72EEC0EFD1EF2
:1014D0002FC0F701808190E0FC01EE0FFF1FEE0F9F
:1014E000FF1FE80FF91FE20FF31F3B96EE0FFF1FE0
:1014F000EC0FFD1F808191810E940831D7018C91F2
:1015000090E0FC01EE0FFF1FEE0FFF1FE80FF91F29
:10151000D8018D919C911197E80FF91F3B96EE0F22
:10152000FF1FEC0FFD1F1182108201968D939C937B
:10153000F801208131812530310558F2D701EC9135
:10154000F0E0EE0FFF1FEC0FFD1FE75BFF4F019078
:10155000F081E02D15AA16AA17AA10AEEC91F0E0C2
:10156000EE0FFF1FEC0FFD1FE75BFF4F80819181A6
:101570000E940831D701EC91F0E0EE0FFF1FEC0F55
:10158000FD1FE75BFF4F11821082FE01ED5AFF4FF6
:10159000808181508083C155DD4F1882DF91CF91CA
:1015A0001F910F91FF90EF90DF90CF90BF90AF9081
:1015B00008952F923F924F925F926F927F928F92F7
:1015C0009F92AF92BF92CF92DF92EF92FF920F93D2
:1015D0001F93DF93CF93CDB7DEB760970FB6F89424
:1015E000DEBF0FBECDBF7C016B01FC01E658FD4F95
:1015F000118210822FEA32E0E20EF31ED7018C91A5
:1016000021E53DEFE20EF31E882311F1DF0110C04A
:10161000F901EE0FFF1FEE0DFF1DE75BFF4F80810D
:101620009181892B59F02F5F3F4F11963C932E9358
:101630002D913C9111972530310550F34DEA52E040
:10164000E40EF51ED7012C93E3E5FDEFEE0EFF1E31
:101650002AE732E0E20EF31ED7011D921C92E8EC5D
:10166000FFEFEE0EFF1ED7018C91EEEBFDEFEE0EBD
:10167000FF1E813079F026E432E0E20EF31ED7013E
:101680008D919C91EAEBFDEFEE0EFF1E0C9770F52D
:101690000C94D31C20E832E0E20EF31ED7018C91AB
:1016A000E0E8FDEFEE0EFF1E882379F426E432E039
:1016B000E20EF31ED7018D919C91EAEBFDEFEE0E49
:1016C000FF1E059798F40C94D31C813079F426E41E
:1016D00032E0E20EF31ED7018D919C91EAEBFDEF13
:1016E000EE0EFF1E0B9710F40C94D31C00E010E0DC
:1016F0006624882477249924B70166587D4FE2E454
:101700004E2EE2E05E2E4E0C5F1C51E8252E52E07C
:10171000352E2E0C3F1C970120583D4F3E872D87BC
:10172000DB011D921C92F801EE0FFF1FEE0DFF1D55
:10173000E75BFF4F0190F081E02D85A996A9A7A94D
:10174000B0AD181619061A061B060CF08CC3D20190
:101750008C91813009F0D0C1AD85BE858C918823F4
:1017600009F0E1C0D60114969C91149780819817D6
:1017700009F079C3AA24BB2416968C91833219F4FC
:1017800031E0A32EB12C96012A0D3B1DD9011696EE
:101790008C91DB011D921C928130A9F0813020F0E8
:1017A000823009F088C070C09389D90117968C9156
:1017B0001797981709F07FC0948918968C919817FD
:1017C00009F079C07CC0FB0111821082A801440F8E
:1017D000551F4E0D5F1D475B5F4F17C0FA01A0817B
:1017E000B181A20FB31FF601E20FF31FEA0DFB1D3B
:1017F0001B969C918781981719F0882483940BC0BD
:101800002F5F3F4FDB012D933C93FB012081318102
:101810002430310518F3DB011D921C92A801440FFE
:10182000551F4E0D5F1D475B5F4F14C0FA01A0812D
:10183000B181A20FB31FF601E20FF31FEA0DFB1DEA
:101840001F969C9183859817A1F52F5F3F4FDB0171
:101850002D933C93FB01208131812430310530F3FD
:1018600025C0992787FD9095F601E40FF51FEA0D35
:10187000FB1D278130E082179307D9F44F5F5F4F3C
:10188000FB015183408307C0D801AA0FBB1FAE0DD7
:10189000BF1DA75BBF4FFB0140815181ED91FC91C2
:1018A0001197E40FF51F85898332D9F6882039F026
:1018B00002C088248394F1E06F1609F0D4C2702E20
:1018C00021E0A216B10479F4E02FF0E0EE0FFF1F43
:1018D000EE0DFF1DE75BFF4F0190F081E02DD6017B
:1018E00015968C9182AFE72DF0E0EE0FFF1FEE0D05
:1018F000FF1DE75BFF4FA081B181DB968C91DB97E9
:101900008F5FDB968C930190F081E02DD6011296CB
:101910002C91129783A994A9820F911D94AB83AB4C
:1019200015969C90E3C0813009F09DC2D6011A96AD
:101930009C911A978081981709F095C2AA24BB241C
:101940001C968C91833219F4B1E0AB2EB12C960128
:101950002A0D3B1DD9011C968C91DB011D921C9216
:101960008130A9F0813020F0823009F088C070C049
:101970009389D9011D968C911D97981709F07FC006
:1019800094891E968C91981709F079C07CC0FB0150
:1019900011821082A801440F551F4E0D5F1D475B39
:1019A0005F4F17C0FA01A081B181A20FB31FF601EA
:1019B000E20FF31FEA0DFB1D1B969C91858598177E
:1019C00019F0882483940BC02F5F3F4FDB012D93C8
:1019D0003C93FB01208131812430310518F3DB0178
:1019E0001D921C92A801440F551F4E0D5F1D475BB1
:1019F0005F4F14C0FA01A081B181A20FB31FF6019D
:101A0000E20FF31FEA0DFB1D1F969C918189981729
:101A1000A1F52F5F3F4FDB012D933C93FB0120810C
:101A200031812430310530F325C0992787FD909509
:101A3000F601E40FF51FEA0DFB1D258530E0821746
:101A40009307D9F44F5F5F4FFB015183408307C079
:101A5000D801AA0FBB1FAE0DBF1DA75BBF4FFB0177
:101A600040815181ED91FC911197E40FF51F85891B
:101A70008332D9F6882039F002C088248394F1E0BB
:101A80006F1609F0F0C1702E21E0A216B10479F4AE
:101A9000E02FF0E0EE0FFF1FEE0DFF1DE75BFF4FA5
:101AA0000190F081E02DD6011B968C9182AFE72D3D
:101AB000F0E0EE0FFF1FEE0DFF1DE75BFF4FA08173
:101AC000B181DB968C91DB978F5FDB968C930190D5
:101AD000F081E02DD60118962C91189783A994A92E
:101AE000820F911D94AB83AB1B969C909A94B4E0AB
:101AF000B91508F0B4C1F8C68250843008F0B3C1FB
:101B0000D1018C91882309F0D2C0D6011B969C91FB
:101B10001B978081981709F0A6C1AA24BB241D96A3
:101B20008C91833219F431E0A32EB12C96012A0D49
:101B30003B1DD9011D968C91DB011D921C928130B9
:101B4000A9F0813020F0823009F088C070C09389FC
:101B5000D9011E968C911E97981709F07FC0948921
:101B60001F968C91981709F079C07CC0FB011182F7
:101B70001082A801440F551F4E0D5F1D475B5F4F3C
:101B800017C0FA01A081B181A20FB31FF601E20FC5
:101B9000F31FEA0DFB1D1B969C918685981719F083
:101BA000882483940BC02F5F3F4FDB012D933C9320
:101BB000FB01208131812430310518F3DB011D92B6
:101BC0001C92A801440F551F4E0D5F1D475B5F4FD0
:101BD00014C0FA01A081B181A20FB31FF601E20F78
:101BE000F31FEA0DFB1D1F969C9182899817A1F5A2
:101BF0002F5F3F4FDB012D933C93FB01208131810F
:101C00002430310530F325C0992787FD9095F601E2
:101C1000E40FF51FEA0DFB1D268530E082179307C0
:101C2000D9F44F5F5F4FFB015183408307C0D80158
:101C3000AA0FBB1FAE0DBF1DA75BBF4FFB014081AD
:101C40005181ED91FC911197E40FF51F8589833245
:101C5000D9F6882039F002C088248394F1E06F1609
:101C600009F001C1702E21E0A216B10479F4E02F31
:101C7000F0E0EE0FFF1FEE0DFF1DE75BFF4F019041
:101C8000F081E02DD6011C968C9182AFE72DF0E01B
:101C9000EE0FFF1FEE0DFF1DE75BFF4F0190F08180
:101CA000E02D83AD8F5F83AFF6019484D3C0823083
:101CB00009F0D9C0D60151969C915197808198170F
:101CC00009F0D1C0AA24BB2453968C91833219F415
:101CD000B1E0AB2EB12C96012A0D3B1DD9015396D4
:101CE0008C91DB011D921C928130A9F0813020F093
:101CF000823009F088C070C09389D90154968C91C4
:101D00005497981709F07FC0948955968C9198172D
:101D100009F079C07BC0FB0111821082A801440F39
:101D2000551F4E0D5F1D475B5F4F17C0FA01A08125
:101D3000B181A20FB31FF601E20FF31FEA0DFB1DE5
:101D40001B969C918489981719F0882483940BC062
:101D50002F5F3F4FDB012D933C93FB0120813181AD
:101D60002430310518F3DB011D921C92A801440FA9
:101D7000551F4E0D5F1D475B5F4F14C0FA01A081D8
:101D8000B181A20FB31FF601E20FF31FEA0DFB1D95
:101D90001F969C91808D9817A1F52F5F3F4FDB0117
:101DA0002D933C93FB01208131812430310530F3A8
:101DB00025C0992787FD9095F601E40FF51FEA0DE0
:101DC000FB1D248930E082179307D9F44F5F5F4FE2
:101DD000FB015183408307C0D801AA0FBB1FAE0D82
:101DE000BF1DA75BBF4FFB0140815181ED91FC916D
:101DF0001197E40FF51F85898332D9F6882031F0D9
:101E000002C088248394F1E06F1669F5702E21E0FA
:101E1000A216B10479F4E02FF0E0EE0FFF1FEE0DF3
:101E2000FF1DE75BFF4F0190F081E02DD601529638
:101E30008C9182AFE72DF0E0EE0FFF1FEE0DFF1D3E
:101E4000E75BFF4F0190F081E02D83AD8F5F83AFA3
:101E5000F60192889A94F4E0F91508F445C505E076
:101E600010E0662463940F5F1F4F0530110508F4DE
:101E700057CC2AE732E0E20EF31ED7011D921C92E6
:101E8000E6E8FDEFEE0EFF1E662009F015C687019D
:101E900003551D4FD8017C90EFEAF2E0EE0EFF1ED5
:101EA00081E0D7018C93E4EAFDEFEE0EFF1ED7012F
:101EB0008C91EDEAFFEFEE0EFF1E853028F0C70192
:101EC0000E94F909D8017C90F701ED5AFF4F8081FB
:101ED0008F5F8083A72CBB2481E090E06EE370E0ED
:101EE0000E943F30FC012501440C551C4E0C5F1C28
:101EF00029E430E0420E531ED2018D939C9300974B
:101F000009F4F8C522E432E0E20EF31ED7018C9109
:101F10002EEB3DEFE20EF31E813009F084C240E863
:101F200052E0E40EF51ED7018C9120E83DEFE20E61
:101F3000F31E882309F022C112A6D201ED91FC9173
:101F4000D60114968C918083F201008111810E9448
:101F5000FA01D801D5966D937D938D939C93D89774
:101F6000F701E658FD4F118210829F01A20111C0B6
:101F7000FA01608171816A0F7B1FAC0DBD1D8C91D0
:101F8000DB0119968C93F9018081918101969183EF
:101F90008083F901A081B181A230B10548F340E00E
:101FA00050E0D60116968C91833211F441E050E056
:101FB000D501AA0FBB1FAE0DBF1DA75BBF4F2D9153
:101FC0003C911197B601640F751FFB018681F901E1
:101FD00081A7970126583D4FF901118210820D917A
:101FE0001C911197F80181A5813089F0813020F092
:101FF000823009F089C063C0FB018781F801838BBF
:10200000ED91FC91DB0118968C91848B7DC0F901D8
:10201000118210824901BD0114C0FB0100811181B0
:102020000A0F1B1FAC0DBD1DA40FB51F17968C9179
:10203000D8011B968C93F401808191810196918344
:102040008083F401A081B181A430B10530F3D901BE
:102050001D921C92970126583D4FB501660F771FC0
:102060006E0D7F1D675B7F4F14C0FB0100811181E6
:102070000A0F1B1FAC0DBD1DA40FB51F1B968C9125
:10208000D8011F968C93F9018081918101969183EB
:102090008083F901A081B181A430B10530F334C04F
:1020A000ED91FC911197E80FF91F258BFB018081C1
:1020B0009181019691838083459710F00CC0B901FE
:1020C000FB0180819181F601E80FF91FE40FF51FF4
:1020D0002781233229F7F501EE0FFF1FEE0DFF1DBB
:1020E000E75BFF4F0190F081E02D2AE732E0E20E3E
:1020F000F31ED7018D919C9126E83DEFE20EF31E71
:10210000E80FF91F83E2858B4130510571F4F50129
:10211000EE0FFF1FEE0DFF1DE75BFF4F0190F081FB
:10212000E02DD60115968C9182AFD501AA0FBB1F69
:10213000AE0DBF1DA75BBF4FED91FC91119791E0D4
:1021400093AFF60195809A94F4E0F91508F4CCC3A6
:102150002D913C911197F6018281F90183AB14AA6C
:10216000F6018381F90182ABED91FC9182A9815046
:10217000823010F493A7A0C413A69EC4813009F046
:102180009BC482A7D201ED91FC91D6011A968C9145
:102190008083F201008111810E94FA01D801D59655
:1021A0006D937D938D939C93D897A70146585D4F6F
:1021B000FA01118210829A01B20111C0FB01008163
:1021C00011810A0F1B1FAC0DBD1D8C91D8011596F6
:1021D0008C93F90180819181019691838083F9012B
:1021E000A081B181A430B10548F3DA011D921C929F
:1021F000970126583D4FA501440F551F4E0D5F1DF9
:10220000475B5F4F12C0FA01608171816A0F7B1FCB
:10221000AC0DBD1D14968C91DB0111968C93F901C8
:1022200080819181019691838083F901A081B181A0
:10223000A430B10540F360E070E0D6011C968C91AB
:10224000833211F461E070E0D501AA0FBB1FAE0D1F
:10225000BF1DA75BBF4F2D913C911197A601460F63
:10226000571FFA018485F90181A7970126583D4F30
:10227000F901118210820D911C911197F80181A52D
:10228000813089F0813020F0823009F089C063C04C
:10229000FA018585F801838BED91FC91DA011E9698
:1022A0008C91848B7DC0F901118210824901AD01AE
:1022B00014C0FA01008111810A0F1B1FAC0DBD1D56
:1022C000A60FB71F1D968C91D8011B968C93F40115
:1022D00080819181019691838083F401A081B181F5
:1022E000A430B10530F3D9011D921C9297012658F4
:1022F0003D4FA501440F551F4E0D5F1D475B5F4FBE
:1023000014C0FA01008111810A0F1B1FAC0DBD1D05
:10231000A60FB71F51968C91D8011F968C93F90187
:1023200080819181019691838083F901A081B1819F
:10233000A430B10530F334C0ED91FC911197E80F52
:10234000F91F258BFA018081918101969183808309
:10235000459710F00CC0A901FA0180819181F60126
:10236000E80FF91FE60FF71F2585233229F7F5013E
:10237000EE0FFF1FEE0DFF1DE75BFF4F0190F08199
:10238000E02D2AE732E0E20EF31ED7018D919C91F9
:1023900026E83DEFE20EF31EE80FF91F83E2858B7E
:1023A000D501AA0FBB1FAE0DBF1DA75BBF4F2D915F
:1023B0003C911197F6018085F90183AB14AAF601CF
:1023C0008185F90182ABED91FC9182A98150823027
:1023D00018F481E083A701C013A66130710571F480
:1023E000F501EE0FFF1FEE0DFF1DE75BFF4F0190A4
:1023F000F081E02DD6011B968C9182AFAA0CBB1CFC
:10240000AE0CBF1CE9E4F0E0AE0EBF1ED501ED91AD
:10241000FC9181E083AFF60193849A94F4E0F9157E
:1024200008F04AC361C28250843008F045C321E8F5
:1024300032E0E20EF31ED7018C912FE73DEFE20E62
:10244000F31E882309F066C1D6011B968C91808308
:10245000F201008111810E94FA01D801D5966D9395
:102460007D938D939C93D89740E050E0F60185854D
:10247000833211F441E050E0D501AA0FBB1FAE0D2D
:10248000BF1DA75BBF4F2D913C911197B601640F03
:10249000751FFB018585F90181A7970126583D4FDE
:1024A000F901118210820D911C911197F80181A5FB
:1024B000813089F0813020F0823009F089C063C01A
:1024C000FB018685F801838BED91FC91DB011F9662
:1024D0008C91848B7DC0F901118210824901BD016C
:1024E00014C0FB01008111810A0F1B1FAC0DBD1D23
:1024F000A40FB51F1E968C91D8011B968C93F401E6
:1025000080819181019691838083F401A081B181C2
:10251000A430B10530F3D9011D921C9297012658C1
:102520003D4FB501660F771F6E0D7F1D675B7F4FB7
:1025300014C0FB01008111810A0F1B1FAC0DBD1DD2
:10254000A40FB51F52968C91D8011F968C93F90158
:1025500080819181019691838083F901A081B1816D
:10256000A430B10530F334C0ED91FC911197E80F20
:10257000F91F258BFB0180819181019691838083D6
:10258000459710F00CC0B901FB0180819181F601E3
:10259000E80FF91FE40FF51F2685233229F7F5010F
:1025A000EE0FFF1FEE0DFF1DE75BFF4F0190F08167
:1025B000E02D2AE732E0E20EF31ED7018D919C91C7
:1025C00026E83DEFE20EF31EE80FF91F83E2858B4C
:1025D0004130510571F4F501EE0FFF1FEE0DFF1DA7
:1025E000E75BFF4F0190F081E02DD6011C968C91A6
:1025F00082AFD501AA0FBB1FAE0DBF1DA75BBF4F9A
:10260000ED91FC91119781E083AFF60194849A9447
:10261000F4E0F91508F468C1970126583D4FF90117
:10262000118210828901AD0111C0FA0160817181AE
:102630006A0F7B1FAC0DBD1D8C91DB0115968C9331
:10264000F80180819181019691838083F801A081B6
:10265000B181A430B10548F3D9011D921C929701B4
:1026600026583D4FA501440F551F4E0D5F1D475B7A
:102670005F4F12C0FA01608171816A0F7B1FAC0D40
:10268000BD1D14968C91DB0111968C93F90180810C
:102690009181019691838083F901A081B181A43059
:1026A000B10540F311821082970126583D4FA501D4
:1026B000440F551FD701A40FB51FA75BBF4F11C013
:1026C0006D917C911197680F791F8C0D9D1DFC01F8
:1026D0008085FB018187F901808191810196918339
:1026E0008083F901808191818230910548F3D7017F
:1026F000A40FB51FA75BBF4FED91FC91119713A6D7
:102700002D913C911197F6018285F90182ABED91F3
:10271000FC91CDC1823009F0CFC1D60151968C9188
:102720008083F201008111810E94FA01D801D596BF
:102730006D937D938D939C93D89740E050E0F60184
:102740008389833211F441E050E0D501AA0FBB1F09
:10275000AE0DBF1DA75BBF4F2D913C911197B601E8
:10276000640F751FFB018389F90181A79701265822
:102770003D4FF901118210820D911C911197F801C2
:1027800081A5813089F0813020F0823009F089C044
:1027900063C0FB018489F801838BED91FC91DB011F
:1027A00055968C91848B7DC0F9011182108249016C
:1027B000BD0114C0FB01008111810A0F1B1FAC0D6C
:1027C000BD1DA40FB51F54968C91D8011B968C93F8
:1027D000F40180819181019691838083F401A0812D
:1027E000B181A430B10530F3D9011D921C9297013B
:1027F00026583D4FB501660F771F6E0D7F1D675B35
:102800007F4F14C0FB01008111810A0F1B1FAC0D0B
:10281000BD1DA40FB51F58968C91D8011F968C939F
:10282000F90180819181019691838083F901A081D2
:10283000B181A430B10530F334C0ED91FC91119712
:10284000E80FF91F258BFB0180819181019691830F
:102850008083459710F00CC0B901FB018081918104
:10286000F601E80FF91FE40FF51F2489233229F739
:10287000F501EE0FFF1FEE0DFF1DE75BFF4F01900F
:10288000F081E02D2AE732E0E20EF31ED7018D91B0
:102890009C9126E83DEFE20EF31EE80FF91F83E25C
:1028A000858B4130510571F4F501EE0FFF1FEE0DE0
:1028B000FF1DE75BFF4F0190F081E02DD60152969E
:1028C0008C9182AFD501AA0FBB1FAE0DBF1DA75BB8
:1028D000BF4FED91FC91119781E083AFF601928893
:1028E0009A94F4E0F91518F4C701672D2BC59701E8
:1028F00026583D4FF901118210828901AD0111C0A6
:10290000FA01608171816A0F7B1FAC0DBD1D8C9136
:10291000DB0115968C93F80180819181019691835A
:102920008083F801A081B181A430B10548F3D901B9
:102930001D921C92970126583D4FA501440F551F2B
:102940004E0D5F1D475B5F4F12C0FA0160817181C0
:102950006A0F7B1FAC0DBD1D14968C91DB01119687
:102960008C93F90180819181019691838083F90193
:10297000A081B181A430B10540F31182108297018A
:1029800026583D4FA501440F551FB701640F751F11
:10299000675B7F4F12C0FB01008111810A0F1B1F73
:1029A000AC0DBD1D18968C91D80119968C93F90128
:1029B00080819181019691838083F901A081B18109
:1029C000A230B10540F3F701E40FF51FE75BFF4FBD
:1029D000A081B18182E09B968C9340815181D60188
:1029E0001A968C91DA019C968C930190F081E02DDF
:1029F000D6011B968C9185A7F9011182108297014F
:102A000026583D4FA501440F551F4E0D5F1D475BD6
:102A10005F4F12C0FA01608171816A0F7B1FAC0D9C
:102A2000BD1D1C968C91DB019E968C93F9018081D3
:102A30009181019691838083F901A081B181A230B7
:102A4000B10540F311821082970126583D4FA50130
:102A5000440F551FD701A40FB51FA75BBF4F11C06F
:102A60006D917C911197680F791F8C0D9D1DFC0154
:102A70008685FB0180ABF90180819181019691836C
:102A80008083F901808191818230910548F3F701BB
:102A9000E40FF51FE75BFF4F20813181D60150968F
:102AA0008C91D901D2968C930190F081E02D82A96E
:102AB000823011F481E083A7072D10E0A92CBB24FC
:102AC00081E090E068E670E00E943F30AC01F801E0
:102AD000EE0FFF1FEE0FFF1FE00FF11FEA0DFB1DB2
:102AE0003B96EE0FFF1FEE0DFF1D518340834115F6
:102AF000510521F4C7010E948B0926C422E432E06B
:102B0000E20EF31ED7019C912EEB3DEFE20EF31E79
:102B1000913009F0A2C1A0E8B2E0EA0EFB1ED70195
:102B20008C9120E83DEFE20EF31E882309F0BCC033
:102B30004A595F4FD60115968C91DA018C93D601D4
:102B400016968C910190F081E02D833221F4E959A1
:102B5000FF4F908303C0E959FF4F1082F801EE0F39
:102B6000FF1FEE0FFF1FE00FF11FEA0DFB1D3B964D
:102B7000EE0FFF1FEE0DFF1D0190F081E02DE959D2
:102B8000FF4F6081862E9924D701A658BD4F11961C
:102B90001C921E92F801EE0FFF1FEE0DFF1DE75B6A
:102BA000FF4F0190F081E02D81A5813071F08130DF
:102BB00018F0823039F403C082E090E01CC040E09D
:102BC00050E00BC080E090E016C088E090E013C0B9
:102BD0002F5F3F4F11963C932E932D913C9111976F
:102BE000F601E20FF31FE80DF91D87814F5F5F4F7C
:102BF000833271F7CA01695F680F262F30E0F70151
:102C0000EA5BFD4F808191818217930710F4318335
:102C10002083F801EE0FFF1FEE0FFF1FE00FF11FE3
:102C2000EA0DFB1D3B96EE0FFF1FEE0DFF1D6081B1
:102C300071816C597F4F46E452E0E40EF51ED701D6
:102C40008D919C914AEB5DEFE40EF51E821B930B78
:102C5000DB018D939C93D701A658BD4F11961C9212
:102C60001E924D01AF0110C06E0F7F1FEC0DFD1DB8
:102C7000E20FF31F8081FB018083D4018D919C9131
:102C8000119701968D939C93D401ED91FC91DA01FB
:102C90006D917C916C597F4FDB018D919C916456B5
:102CA0007040E817F90700F3E0E8F2E0EE0EFF1ECF
:102CB000D7019C91E0E8FDEFEE0EFF1E913009F088
:102CC000CCC0F801EE0FFF1FEE0FFF1FE00FF11F4A
:102CD000EA0DFB1D3B96EE0FFF1FEE0DFF1D208141
:102CE00031812A593F4FD6011B968C91D9018C9383
:102CF000D6011C968C910190F081E02D833221F455
:102D0000E959FF4F908303C0E959FF4F1082F80142
:102D1000EE0FFF1FEE0FFF1FE00FF11FEA0DFB1D6F
:102D20003B96EE0FFF1FEE0DFF1D0190F081E02D91
:102D3000E959FF4F6081862E9924D701A658BD4FCF
:102D400011961C921E92F801EE0FFF1FEE0DFF1D53
:102D5000E75BFF4F0190F081E02D81A5813071F09C
:102D6000813018F0823039F403C082E090E01CC05A
:102D700040E050E00BC080E090E016C088E090E0BA
:102D800013C02F5F3F4F11963C932E932D913C9192
:102D90001197F601E20FF31FE80DF91D85854F5FCE
:102DA0005F4F833271F7CA01635F680F262F30E0EF
:102DB000F701EA5BFD4F808191818217930710F440
:102DC00031832083F801EE0FFF1FEE0FFF1FE00F8E
:102DD000F11FEA0DFB1D3B96EE0FFF1FEE0DFF1DD1
:102DE000608171816C597F4F46E452E0E40EF51E1C
:102DF000D7018D919C914AEB5DEFE40EF51E821B8D
:102E0000930BDB018D939C93D701A658BD4F119670
:102E10001C921E924D01AF0110C06E0F7F1FEC0D72
:102E2000FD1DE20FF31F8081FB018083D4018D9192
:102E30009C91119701968D939C93D401ED91FC91F7
:102E4000DA016D917C916C597F4FDB018D919C91E2
:102E500064567040E817F90700F3E2E4F2E0EE0E82
:102E6000FF1ED7018C91EEEBFDEFEE0EFF1E8250A0
:102E7000843008F0ABC121E832E0E20EF31ED70146
:102E80008C91EFE7FDEFEE0EFF1E882309F0CEC018
:102E9000F801EE0FFF1FEE0FFF1FE00FF11FEA0D0D
:102EA000FB1D3B96EE0FFF1FEE0DFF1D20813181B4
:102EB0002A593F4FD6011C968C91D9018C93D6018B
:102EC0001D968C910190F081E02D833229F4E9590F
:102ED000FF4F81E0808303C0E959FF4F1082F80162
:102EE000EE0FFF1FEE0FFF1FE00FF11FEA0DFB1D9E
:102EF0003B96EE0FFF1FEE0DFF1D0190F081E02DC0
:102F0000E959FF4F6081862E9924D701A658BD4FFD
:102F100011961C921E92F801EE0FFF1FEE0DFF1D81
:102F2000E75BFF4F0190F081E02D81A5813071F0CA
:102F3000813018F0823039F403C082E090E01CC088
:102F400040E050E00BC080E090E016C088E090E0E8
:102F500013C02F5F3F4F11963C932E932D913C91C0
:102F60001197F601E20FF31FE80DF91D86854F5FFB
:102F70005F4F833271F7CA01625F680F262F30E01E
:102F8000F701EA5BFD4F808191818217930710F46E
:102F900031832083F801EE0FFF1FEE0FFF1FE00FBC
:102FA000F11FEA0DFB1D3B96EE0FFF1FEE0DFF1DFF
:102FB000608171816C597F4F46E452E0E40EF51E4A
:102FC000D7018D919C914AEB5DEFE40EF51E821BBB
:102FD000930BDB018D939C93D701A658BD4F11969F
:102FE0001C921E925D01AF0110C06E0F7F1FEC0D91
:102FF000FD1DE20FF31F8081FB018083D5018D91C0
:103000009C91119701968D939C93D501ED91FC9124
:10301000DA016D917C916C597F4FDB018D919C9110
:1030200064567040E817F90700F3D0C0823009F009
:10303000CDC0F801EE0FFF1FEE0FFF1FE00FF11FD5
:10304000EA0DFB1D3B96EE0FFF1FEE0DFF1D2081CD
:1030500031812A593F4FD60152968C91D9018C93D8
:10306000D60153968C910190F081E02D833229F4A2
:10307000E959FF4F81E0808303C0E959FF4F108277
:10308000F801EE0FFF1FEE0FFF1FE00FF11FEA0D1B
:10309000FB1D3B96EE0FFF1FEE0DFF1D0190F08113
:1030A000E02DE959FF4F6081862E9924D701A6585B
:1030B000BD4F11961C921E92F801EE0FFF1FEE0DF0
:1030C000FF1DE75BFF4F0190F081E02D81A581306E
:1030D00071F0813018F0823039F403C082E090E062
:1030E0001CC040E050E00BC080E090E016C088E0DB
:1030F00090E013C02F5F3F4F11963C932E932D917C
:103100003C911197F601E20FF31FE80DF91D878935
:103110004F5F5F4F833271F7CA016C5E680F262FD5
:1031200030E0F701EA5BFD4F8081918182179307C0
:1031300010F431832083F801EE0FFF1FEE0FFF1F05
:10314000E00FF11FEA0DFB1D3B96EE0FFF1FEE0D8A
:10315000FF1D608171816C597F4F46E452E0E40E9F
:10316000F51ED7018D919C914AEB5DEFE40EF51EA3
:10317000821B930BDB018D939C93D701A658BD4F07
:1031800011961C921E925D01AF0110C06E0F7F1F41
:10319000EC0DFD1DE20FF31F8081FB018083D50143
:1031A0008D919C91119701968D939C93D501ED91F2
:1031B000FC91DA016D917C916C597F4FDB018D910F
:1031C0009C9164567040E817F90700F3F701E85B3B
:1031D000FF4F80818F5F8083853009F41082000F5C
:1031E000111F0E0D1F1D075B1F4FD801ED91FC91A4
:1031F00093AD82AD981711F481E081AF99E4C92EA7
:10320000D12CCE0CDF1C66247724870106581D4F75
:1032100083E5282E312C2E0C3F1CF701E355FD4F82
:10322000FA83E983970121553D4F3C832B83A70106
:10323000415A5F4F5E834D83C7018E5B9D4F9887D8
:103240008F83D701AF57BD4FBA87A987F701E752E0
:10325000FE4FFC87EB87D8011D921C920E94FA0159
:10326000D601ED91FC91309709F48FC325A936A9B9
:1032700047A950AD12161306140615060CF085C3A7
:10328000621B730B840B950B69557B41804090400A
:103290000CF037C381AD813009F000C3B62CE98151
:1032A000FA816082AB81BC811C92ED81FE818081BC
:1032B0008F5F8083D8011D921C920FC0F901BA96CE
:1032C000EE0FFF1FEE0DFF1D80819181892B59F0BC
:1032D0002F5F3F4FF80131832083D8012D913C911E
:1032E0002530310558F3E22FAD81BE818C918530B8
:1032F00090F0AB85BC858C91813029F0813038F01D
:10330000823049F41DC0C7010E94F20803C0C70102
:103310000E948508E82F4E2E552481E090E064EB52
:1033200070E00E943F30AC019201265D3F4F220FBA
:10333000331F2E0D3F1DF90191838083009731F4D7
:10334000C7016B2D0E9427088FEF2EC3D1018C91EE
:1033500081508C9345555F4FD601ED91FC9185A826
:1033600096A8A7A8B0ACDA018D929D92AD92BC92BE
:1033700013974F5250408081FA018083D901ED911B
:10338000FC91E955FF4FD6018D919C91DC019A96F5
:103390008C918083F901A081B181F60180819181B6
:1033A000FC0183A518968C93AF81B8858C918130F0
:1033B00009F060C0F901A081B181A955BF4F8C917E
:1033C000A75AB040813009F048C0D8011D921C9224
:1033D000A90116C0FA01A081B181A80FB91FAF578A
:1033E000BF4FF60120813181280F391FF9018581F6
:1033F0008C93D8018D919C91119701968D939C93FC
:10340000F801808191818430910520F3118210822E
:10341000A201465D5F4F440F551F4E0D5F1D16C044
:10342000FA01A081B181A80FB91FA358BF4FF601BF
:1034300020813181280F391FF90181818C93D801B6
:103440008D919C91119701968D939C93F8018081A9
:1034500091818430910520F36EC0882309F06BC000
:10346000AB57BF4FF60180819181FC0181858C9320
:10347000D90156C0F80111821082A90116C0FA01C3
:10348000A081B181A80FB91FAF57BF4FF6012081AE
:103490003181280F391FF90185818C93D8018D91D5
:1034A0009C91119701968D939C93F8018081918155
:1034B0008430910520F3118210829201265D3F4FE6
:1034C000B901660F771F6E0D7F1D13C0DB01ED91F3
:1034D000FC91E80FF91FE358FF4F480F591FDA011D
:1034E00011968C918083F80180819181019691835E
:1034F0008083D8018D919C91F60140815181843067
:10350000910520F3D901AA0FBB1FAE0DBF1D2D9150
:103510003C9111972B573F4FFA018185F901808328
:10352000ED91FC91EA57FF4FD6018D919C91DC0102
:103530001A968C918083F601808191813AE2A32EC4
:10354000B12CA40CB51CAA0CBB1CAE0CBF1CD50125
:10355000ED91FC91EA55FF4FDC01DA966C91DA9718
:10356000D3968D919C91D49770E00E94D52F608363
:10357000D501ED91FC91E855FF4FD6018D919C91BD
:10358000DC0199968C918083F501A081B181A855C9
:10359000BF4F8C91A85AB0408130D9F0813020F0D3
:1035A000823009F08BC05DC0A157BF4FF60180810A
:1035B0009181FC0183898C93D501ED91FC91E057B9
:1035C000FF4FD6018D919C91DC0154968C918083A4
:1035D00075C0F80111821082A50116C0FA01A08100
:1035E000B181A80FB91FA557BF4FF60120813181C6
:1035F000280F391FF90183858C93D8018D919C91F7
:10360000119701968D939C93F8018081918184306C
:10361000910520F311821082A201465D5F4F440F95
:10362000551F4E0D5F1D16C0FA01A081B181A80F74
:10363000B91FA957BF4FF60120813181280F391FCB
:10364000F90187858C93D8018D919C9111970196F2
:103650008D939C93F801808191818430910520F3B2
:103660002DC0D8011D921C92A501F8018081918185
:10367000FA01A081B181A80FB91FAF56BF4FF60163
:1036800020813181280F391FF90185898C93D80158
:103690008D919C91119701968D939C93D601ED91FC
:1036A000FC91E80FF91F25892332F9F6D501ED9138
:1036B000FC91E80FF91FEF56FF4F2083D601ED91E3
:1036C000FC9182AD682F70E061507040F301EE0F05
:1036D000FF1FEE0FFF1FE60DF71DE60FF71F3B96CE
:1036E000EE0FFF1FEE0DFF1DF88BEF878824992446
:1036F000AA24BB24A201465D5F4F440F551F4E0D07
:103700005F1D32C0D8011D921C9216C0FA012081A3
:103710003181280F391F2A0D3B1DA80FB91F8C912D
:10372000D9011C968C930894811C911CF80180810E
:103730009181019691838083D8018D919C91EF8531
:10374000F889A081B181AC59BF4F2D913C9111975F
:10375000A456B04082179307C8F2A20EB31E615060
:1037600070403297F88BEF87FFEF6F3F7F0751F67E
:103770009201265D3F4F220F331F2E0D3F1DF90191
:10378000A081B181A059BF4F11969C928E92A057F3
:10379000B040E985FA858081823009F044C0AC5898
:1037A000BF4FF60180819181FC0184A58C93D901E2
:1037B000ED91FC91EB58FF4FD6018D919C91DC016E
:1037C0009D968C918083D901ED91FC91EA58FF4F31
:1037D000D6018D919C91DC019E968C918083D901BC
:1037E000ED91FC91E958FF4FD6018D919C91DC0140
:1037F0009F968C918083D901ED91FC91E858FF4F01
:10380000D6018D919C91DC01D0968C918083D90159
:10381000ED91FC91E758FF4FD6018D919C91DC0111
:10382000D1968C918083F801118210825301AA0CE9
:10383000BB1CAA0CBB1CA60CB71C1CC0EA0DFB1DB4
:103840003B96EE0FFF1FEE0DFF1D808191810E94C0
:103850000831D8018D919C911197F501E80FF91F5E
:103860003B96EE0FFF1FEE0DFF1D11821082019699
:103870008D939C93D801ED91FC91E530F105F0F228
:10388000D601ED91FC9115AA16AA17AA10AECF0188
:103890000E940831F6011182108277C092AD83AD8B
:1038A000981709F072C0D8011D921C925301AA0CFE
:1038B000BB1CAA0CBB1CA60CB71C1CC0EA0DFB1D34
:1038C0003B96EE0FFF1FEE0DFF1D808191810E9440
:1038D0000831F80180819181F501E80FF91F3B96CD
:1038E000EE0FFF1FEE0DFF1D118210820196D80111
:1038F0008D939C93D801ED91FC91E530F105F0F2A8
:103900002DC0F801118210825301AA0CBB1CAA0C15
:10391000BB1CA60CB71C1CC0EA0DFB1D3B96EE0F92
:10392000FF1FEE0DFF1D808191810E940831D8019B
:103930008D919C911197F501E80FF91F3B96EE0FC1
:10394000FF1FEE0DFF1D1182108201968D939C9337
:10395000D801ED91FC91E530F105F0F2D601ED9141
:10396000FC9115AA16AA17AA10AECF010E94083121
:10397000F60111821082D1018C9181508C93E981E2
:10398000FA816082AB81BC811C920894611C711C1D
:10399000E2E0F0E0CE0EDF1EF5E06F16710409F0F4
:1039A0005ACC80E001C081E060960FB6F894DEBF8B
:1039B0000FBECDBFCF91DF911F910F91FF90EF9080
:1039C000DF90CF90BF90AF909F908F907F906F903F
:1039D0005F904F903F902F900895AF92BF92CF92FB
:1039E000DF92EF92FF920F931F93CF93DF93EC013F
:1039F0006B015A01890188E790E061E070E00E9464
:103A00003F307C01009711F41FEF81C0B8016D5F5A
:103A10007F4FFE01E658FD4F7183608340E050E028
:103A2000DF010BC0F601E20FF31F8081480F511D2B
:103A30002F5F3F4F11963C932E932D913C91119700
:103A40002A153B0578F34F3F510519F04F3F09F018
:103A50006AC0DE01AA5BBD4F11961C921E92FE0148
:103A6000E658FD4F0C5F1F4F118300830450104038
:103A70009F010894A108B108AD0116C0FD0134975B
:103A8000E01BF10BEE0DFF1DAC0DBD1D8C91808375
:103A9000FA0180819181019691838083F90180816F
:103AA0009181019691838083F901A081B181AA154A
:103AB000BB0520F36C0D7D1DFB018081813879F001
:103AC000823818F48038D9F405C0803971F0813912
:103AD000B1F40FC0C058DD4F81E0888303C0C058E7
:103AE000DD4F1882C058D2400AC0CF57DD4F188230
:103AF00004C0CF57DD4F82E08883C158D240CE0149
:103B0000B7010E94D90A182FC7010E940831812FDE
:103B1000DF91CF911F910F91FF90EF90DF90CF90A9
:103B2000BF90AF900895C7010E94083111E0EFCF18
:103B30002F923F924F925F926F927F928F929F92BD
:103B4000AF92BF92CF92DF92EF92FF920F931F93AB
:103B5000DF93CF93CDB7DEB762970FB6F894DEBF91
:103B60000FBECDBF6C014B010E94FA01F82E2CED67
:103B700031E0C20ED31E82E0D6018C93E4E2FEEF68
:103B8000CE0EDF1EF601E255FD4F8081882321F421
:103B900000E010E0332408C08EE7D4018C9310823B
:103BA00001E010E0332433944F2D592FCB01DA017B
:103BB0002C013D01EBE0F0E0FA8BE98BEE242224AE
:103BC0004EEAA42E42E0B42EAC0CBD1C96012B5B39
:103BD0003D4F388B2F875FC1AF85B889FC90FF20A0
:103BE00009F0A9C087E79BE00E941204882309F42A
:103BF00091C087E79BE00E940D04F401E00FF11FE4
:103C000080830F5F1F4F0E94FA01AC01CB01DA01E4
:103C10002C013D0101501040F401E00FF11F0F5F36
:103C20001F4F80818E3761F48CE291E0801B910BF5
:103C30008E36910520F421E0D5012C9301C03394F8
:103C40000130110541F400E010E080818E3751F41D
:103C500001E010E007C031E00C32130718F0FF2438
:103C6000F39401C0FF2486E0289E900111242C5F6C
:103C70003F4FC9018E0D911D0817190799F491E066
:103C8000E91699F0F401E00FF11F319780818A580D
:103C9000823080F0A989BA891396BA8BA98BEE2459
:103CA000E39403C0B1E0EB1629F4E989FA8931966F
:103CB000FA8BE98BF401E00FF11F3197E081ED37CA
:103CC00049F4EE2001F529893A892F5F3F4F3A8B5D
:103CD000298B19C0EA3851F402171307A1F4898916
:103CE0009A8906969A8B898B23940DC0EE3759F4E6
:103CF00091E0E91641F4A989BA891197BA8BA98B89
:103D000039EFE32EEA0EE989FA890E171F0711F43D
:103D1000FF24F3940E94FA010E94FA0164197509C4
:103D200086099709615D77408040904008F4B1C0F2
:103D300087E79BE0ABC021E0F21609F0ACC089E751
:103D40009BE00E941204882311F4FF2490C089E7AD
:103D50009BE00E940D04F401E00FF11F80830F5FD0
:103D60001F4F0E94FA01AC01CB01DA012C013D0189
:103D700001501040F401E00FF11F0F5F1F4F8081D1
:103D80008E3759F48CE291E0801B910B8E369105B1
:103D900018F4D501FC9201C033940130110541F4AF
:103DA00000E010E080818E3751F401E010E007C0A0
:103DB000B1E00C321B0718F0FF24F39401C0FF247C
:103DC000E6E02E9E900111242C5F3F4FC9018E0D1D
:103DD000911D0817190799F4F1E0EF1699F0F40115
:103DE000E00FF11F319780818A58823080F08989F5
:103DF0009A8903969A8B898BEE24E39403C091E011
:103E0000E91629F4A989BA891196BA8BA98BF4010C
:103E1000E00FF11F3197E081ED3741F4EE2001F51D
:103E2000E989FA893196FA8BE98B1AC0EA3859F494
:103E300002171307A9F429893A892A5F3F4F3A8B61
:103E4000298B23940DC0EE3759F431E0E31641F489
:103E500089899A8901979A8B898B29EFE22EE80E3E
:103E6000A989BA890A171B0711F4FF24F3940E9449
:103E7000FA010E94FA016419750986099709615DC2
:103E800077408040904028F089E79BE00E9408043A
:103E900007C0FF2029F4F5018081882309F49CCE16
:103EA000D4018C918E3709F0339491E0E92EF12CF6
:103EB000AA24BB248AE7482E82E0582E4C0C5D1CB5
:103EC000F601E655FD4FFA83E983960125553D4FEE
:103ED0003C832B83C60184559D4F9E838D83D601E1
:103EE000A755BD4FB887AF83F601E855FD4FFA8758
:103EF000E987960124523E4F3C872B8766246394C2
:103F0000C60185529E4F9E878D879BC00894E11CF9
:103F1000F11C80818E3721F03196E016F106B0F366
:103F2000D701AA19BB09BA8BA98BF20111821082A1
:103F30007724A4014A0D5B1D0CC0FA01E20FF31FA8
:103F400080818D3709F473942F5F3F4FD2012D93F9
:103F50003C93F2012081318189899A892817390798
:103F600060F3772049F09701281B390BC601B40193
:103F700049895A890E94AD049701A989BA892A1BE7
:103F80003B0BF401E20FF31F83818B38C1F18C38B6
:103F900020F48A3809F050C006C0803991F0813988
:103FA00009F04AC01BC0E989FA89EA0DFB1DE7192F
:103FB000F109FA8BE98BC601B401AF010E94080533
:103FC0003BC089899A898A0D9B1D871991099A8B13
:103FD000898BC601B40149895A890BC0E989FA89DC
:103FE000EA0DFB1DE719F109FA8BE98BC601B40153
:103FF000AF010E94ED1CAD85BE858C931DC08581EF
:10400000A981BA818C938681AB81BC818C93878195
:10401000AD81BE818C938185AF81B8858C9380857D
:10402000E985FA858083882321F4AB85BC851C92C1
:1040300003C0EB85FC8560823A9457010894E11C2B
:10404000F11C332021F0F401EE0DFF1D62CF2CEDA9
:1040500031E0C20ED31ED6018C9162960FB6F89451
:10406000DEBF0FBECDBFCF91DF911F910F91FF90AB
:10407000EF90DF90CF90BF90AF909F908F907F9008
:104080006F905F904F903F902F9008952F923F92A6
:104090004F925F926F927F928F929F92AF92BF9258
:1040A000CF92DF92EF92FF920F931F93DF93CF9304
:1040B000CDB7DEB72A970FB6F894DEBF0FBECDBFDF
:1040C0005C014B010E94FA01F82E2CED31E0A20EAA
:1040D000B31E82E0D5018C93E4E2FEEFAE0EBF1E6C
:1040E000F501E255FD4F8081882321F400E010E0C6
:1040F000332408C08EE7D4018C93108201E010E0D5
:10410000332433944F2D592FCB01DA012C013D017B
:10411000E7E0F0E0FA87E987EE242224FEEACF2EDA
:10412000F2E0DF2ECA0CDB1C95012B5B3D4F38877C
:104130002F835FC1AF81B885FC90FF2009F0A9C033
:1041400087E79BE00E941204882309F491C087E767
:104150009BE00E940D04F401E00FF11F80830F5FCC
:104160001F4F0E94FA01AC01CB01DA012C013D0185
:1041700001501040F401E00FF11F0F5F1F4F8081CD
:104180008E3761F48CE291E0801B910B8E369105A5
:1041900020F421E0D6012C9301C0339401301105A5
:1041A00041F400E010E080818E3751F401E010E02E
:1041B00007C031E00C32130718F0FF24F39401C05C
:1041C000FF2486E0289E900111242C5F3F4FC901F7
:1041D0008E0D911D0817190799F491E0E91699F0D1
:1041E000F401E00FF11F319780818958823080F00F
:1041F000A985BA851396BA87A987EE24E39403C0EC
:10420000B1E0EB1629F4E985FA853196FA87E9875A
:10421000F401E00FF11F3197E081ED3749F4EE2012
:1042200001F529853A852F5F3F4F3A87298719C0C5
:10423000EA3851F402171307A1F489859A85069686
:104240009A87898723940DC0EE3759F491E0E916D7
:1042500041F4A985BA851197BA87A987E9EFEE2EAF
:10426000EA0EE985FA850E171F0711F4FF24F3946F
:104270000E94FA010E94FA016419750986099709DA
:10428000615D77408040904008F4B1C087E79BE0D3
:10429000ABC021E0F21609F0ACC089E79BE00E94B8
:1042A0001204882311F4FF2490C089E79BE00E9448
:1042B0000D04F401E00FF11F80830F5F1F4F0E9478
:1042C000FA01AC01CB01DA012C013D010150104093
:1042D000F401E00FF11F0F5F1F4F80818E3759F4FB
:1042E0008CE291E0801B910B8E36910518F4D6017B
:1042F000FC9201C033940130110541F400E010E05C
:1043000080818E3751F401E010E007C0B1E00C323B
:104310001B0718F0FF24F39401C0FF24E6E02E9E53
:10432000900111242C5F3F4FC9018E0D911D08177C
:10433000190799F4F1E0EF1699F0F401E00FF11F7D
:10434000319780818958823080F089859A850396DB
:104350009A878987EE24E39403C091E0E91629F453
:10436000A985BA851196BA87A987F401E00FF11FD4
:104370003197E081ED3741F4EE2001F5E985FA85CA
:104380003196FA87E9871AC0EA3859F402171307F9
:10439000A9F429853A852A5F3F4F3A8729872394D4
:1043A0000DC0EE3759F431E0E31641F489859A8562
:1043B00001979A87898779EFE72EE80EA985BA8554
:1043C0000A171B0711F4FF24F3940E94FA010E94BC
:1043D000FA016419750986099709615D7740804083
:1043E000904028F089E79BE00E94080407C0FF2066
:1043F00029F4F6018081882309F49CCED4018C91A4
:104400008E3709F0339461E0E62EF12CCC24DD24C4
:104410005AE7452E52E0552E4A0C5B1CF501E55239
:10442000FE4FFA83E983950128553D4F3C832B834A
:10443000C50184529E4F9E838D836624639488C0F9
:104440000894E11CF11C80818E3721F03196E01632
:10445000F106B0F3D701AC19BD09BA87A987F201FB
:10446000118210827724A4014C0D5D1D0CC0FA014D
:10447000E20FF31F80818D3709F473942F5F3F4F54
:10448000D2012D933C93F2012081318189859A8557
:104490002817390760F3772049F09701281B390B5B
:1044A000C501B40149855A850E94AD049701A985CB
:1044B000BA852A1B3B0BF401E20FF31F838181387D
:1044C00021F1823818F48038F1F512C0893871F181
:1044D0008A38C9F5E985FA85EC0DFD1DE719F10962
:1044E000FA87E987C501B401AF010E9408052BC016
:1044F00089859A858C0D9D1D871991099A878987D1
:10450000C501B40149855A850BC0E985FA85EC0DD2
:10451000FD1DE719F109FA87E987C501B401AF016B
:104520000E94ED1CA981BA818C930DC08581EB811D
:10453000FC818083882321F4AD81BE811C9203C05D
:10454000ED81FE8160823A9467010894E11CF11CC0
:10455000332021F0F401EE0DFF1D75CF2CED31E07D
:10456000A20EB31ED5018C912A960FB6F894DEBF29
:104570000FBECDBFCF91DF911F910F91FF90EF90B4
:10458000DF90CF90BF90AF909F908F907F906F9073
:104590005F904F903F902F9008952F923F924F92AF
:1045A0005F926F927F928F929F92AF92BF92CF92C3
:1045B000DF92EF92FF920F931F93DF93CF93CDB7CC
:1045C000DEB760970FB6F894DEBF0FBECDBF6C01AB
:1045D00078876F838CE291E061E070E00E943F3069
:1045E0005C010097A1F425E432E0C20ED31EF6016F
:1045F0000081002319F487E79BE004C0013021F417
:1046000089E79BE00E940804FF24FA9400C20E94FC
:10461000FA010E94FA01F601E255FD4F80818823DC
:1046200021F4222433241A8209C010828EE7F50176
:104630008083B1E02B2E312CF1E0FA83EF81F885F5
:1046400080818F3F29F4C601B5010E94462006C033
:104650008E3F79F4C601B5010E94981D860104526F
:104660001E4FF8018083C5010E940831F801F080D7
:10467000CEC18E3E41F4A5E06A2E712C812C912C86
:10468000FDE65F2E07C0E2E36E2E712C812C912C8B
:104690007EE1572EEF81F8858581853489F4868106
:1046A000843409F045C022E432E0C20ED31EF60184
:1046B00080812EEB3DEFC20ED31E8130C9F5C7C1FC
:1046C000843461F4EF81F88586818E3489F568EE53
:1046D000662E63E0762E812C912C2AC08E3441F513
:1046E000EF81F8858681843419F522E432E0C20E28
:1046F000D31EF60180812EEB3DEFC20ED31E833018
:1047000039F450E4652E5CE9752E812C912C10C093
:104710008450823038F440EB642E46E3742E812CB2
:10472000912C06C030E2632E3EE4732E812C912C36
:104730000E94FA016B837C838D839E830E94FA0121
:10474000AC01CB01DA017C018D01A60142555D4F20
:10475000588B4F87C6018B5B9D4F9C878B87E52DC0
:10476000F0E0FE87ED87442443945CC087E79BE03C
:104770000E941204882309F451C087E79BE00E943D
:104780000D04F501E20DF31D80830894211C311CFA
:10479000F501E20DF31D319780818E37C1F58CE272
:1047A00091E0821993092D853E858217930760F564
:1047B000EF85F88940822BC021E0521679F589E710
:1047C0009BE00E941204882349F189E79BE00E9444
:1047D0000D04F501E20DF31D80830894211C311CAA
:1047E000F501E20DF31D319780818E3781F48CE263
:1047F00091E0821993094D855E858417950720F411
:10480000EF85F889508203C0FA81FF5FFA830E9426
:10481000FA01AC01CB01DA017C018D010E94FA01A1
:104820000E94FA010E94FA016E197F09800B910B18
:10483000661577058805990508F003C10E94FA01FD
:104840002B813C814D815E81621B730B840B950B28
:1048500060547C498040904008F0F3C04CE224163C
:1048600041E0340608F0EDC0EF85F88980818823A7
:1048700009F0E7C0EB85FC855080552009F09CCFFE
:1048800075CFFA81FF5FFA8321E0822E912C00E040
:1048900010E092E0F92E19828AE7482E82E0582E25
:1048A0004C0C5D1C960126523E4F3A872987BBED82
:1048B0006B2EB1E07B2E6C0C7D1C9CC00894811C7F
:1048C000911C80818E3721F0319682149304B0F3CD
:1048D000A401401B510B588B4F87F20111821082AB
:1048E000EE24A501400F511F0CC0FA01E20FF31F87
:1048F00080818D3709F4E3942F5F3F4FF2013183BC
:104900002083F201208131818F859889281739070A
:1049100060F3EE2049F09401281B390BC601B50164
:104920004F8558890E94AD04D401EF85F889AE1BEC
:10493000BF0BF501EA0FFB1F8381883881F08938AE
:1049400030F4803879F1813809F048C036C08039B8
:10495000A1F1813991F18A3809F040C013C02F8547
:104960003889200F311F2E193109388B2F87C60146
:10497000B5014F8158858D010E947807F82EE98591
:10498000FA852BC02F853889200F311F2E19310948
:10499000388B2F87C601B501A9019D010E9408052A
:1049A000F82E1CC04F855889400F511F4E195109D0
:1049B000588B4F87C601B5010BC02F853889200F52
:1049C000311F2E193109388B2F87C601B501A90176
:1049D0009D010E94ED1CF82EF301F082FF2019F4D6
:1049E000F981FF5FF9832A8121502A838401089489
:1049F000811C911C3A81332321F0F501E80DF91D4A
:104A000060CFC5010E94083149814111FF248F2DDB
:104A100060960FB6F894DEBF0FBECDBFCF91DF9189
:104A20001F910F91FF90EF90DF90CF90BF90AF90CC
:104A30009F908F907F906F905F904F903F902F90BE
:104A40000895F50180818E3709F01BCF1DCFA8EBAB
:104A50006A2EABE07A2E812C912C6ACEEF92FF92D7
:104A60000F931F93CF93DF93EC01FC01E658FD4FAA
:104A70001182108290E0DF0106C09F5F2F5F3F4FE1
:104A800011963C932E932D913C911197FB01E20FCF
:104A9000F31F8081882389F7092F069510E075E4BC
:104AA000E72E72E0F72EEC0EFD1E26C0F701808186
:104AB000882361F4FE01E10FF11DE857FD4F4081AD
:104AC00050E060E070E087E79BE011C0813099F42E
:104AD00085EA91E10E94702CFE01E10FF11DE8577B
:104AE000FD4F408150E060E070E089E79BE020E00E
:104AF00030E00E94CB031F5F1017C0F2CE01C857F1
:104B0000DD4FBE010E94CD22DF91CF911F910F9109
:104B1000FF90EF900895AF92BF92CF92DF92EF9205
:104B2000FF920F931F93CF93DF938C015A01DC0107
:104B3000A658BD4F11961C921E92ED0109C0F801B6
:104B4000E80FF91FE857FD4F10820196998388837B
:104B5000888199818E31910590F31D921C9290E08D
:104B6000D801A658BD4F06C09F5F2F5F3F4F1196DB
:104B70003C932E932D913C911197FB01E20FF31F73
:104B80008081882389F7D92ED6947B01C02EC80155
:104B9000EC0110C085EA91E1F701608141810E943A
:104BA000DF2BC857DD4F888322E030E0E20EF31E92
:104BB000C758D240FE01EC19ED1560F3F8E1DF169D
:104BC000D9F4F801E658FD4F11821082EF010EC0B2
:104BD000F801E20FF31FE157FD4FD501A20FB31FFC
:104BE0008C9180832F5F3F4F3983288328813981BF
:104BF0002031310568F362C020E1D216D9F4F80102
:104C0000E658FD4F11821082EF010EC0F801E20F4D
:104C1000F31FE157FD4FD501A20FB31F8C91808385
:104C20002F5F3F4F39832883288139812830310510
:104C300068F344C03BE0D316D9F4F801E658FD4FC1
:104C400011821082EF010EC0F801E20FF31FE1574D
:104C5000FD4FD501A20FB31F8C9180832F5F3F4F73
:104C600039832883288139812330310568F326C0B0
:104C70008AE0D816D9F4F801E658FD4F1182108267
:104C8000EF010EC0F801E20FF31FE157FD4FD50110
:104C9000A20FB31F8C9180832F5F3F4F39832883EE
:104CA000288139812230310568F308C00D0D111DAE
:104CB0000A571D4FF5018081F8018083DF91CF9164
:104CC0001F910F91FF90EF90DF90CF90BF90AF902A
:104CD00008950F931F93CF93DF93EC018B01C6527E
:104CE000DE4F82E08883CA5DD140CE0161E573E08A
:104CF000A8010E948B25CE0161E573E00E94690442
:104D0000CE0161E573E00E942E25982F8823E1F4FF
:104D1000FE01E658FD4F11821082AF010FC0FE0167
:104D2000E20FF31FE75AFE4FD801A20FB31F8C9179
:104D300080832F5F3F4FFA0131832083FA01208166
:104D400031812031310558F3892FDF91CF911F91A7
:104D50000F9108950F931F93CF93DF93EC018B0175
:104D6000CE5BDD4F8881C254D240813041F0833028
:104D700031F0843021F0853011F092E017C0C65236
:104D8000DE4F82E08883CA5DD140CE0162E074E0EC
:104D9000A8010E948B25CE0162E074E00E946904A4
:104DA000CE0162E074E00E942E25982FCE5BDD4F8D
:104DB0008881C254D2408230B1F4C652DE4F88831B
:104DC000CA5DD140CE0167E174E0A8010E948B2545
:104DD000CE0167E174E00E946904CE0167E174E0EE
:104DE0000E942E25982F992309F048C0CE5BDD4FF5
:104DF0008881C254D240813031F0833021F0843038
:104E000011F08530D1F4FE01E658FD4F1182108279
:104E1000AF010DC0FE01E20FF31FD801A20FB31FB7
:104E20008C9185872F5F3F4FFA0131832083FA01F0
:104E3000208131812230310568F3CE5BDD4F8881DE
:104E4000C254D2408230D1F4FE01E658FD4F1182A7
:104E50001082AF010DC0FE01E20FF31FD801A20FB7
:104E6000B31F8C9185872F5F3F4FFA0131832083D9
:104E7000FA01208131812830310568F3892FDF91D3
:104E8000CF911F910F910895EF92FF920F931F936F
:104E9000CF93DF93AC01DC01A658BD4F11961C9255
:104EA0001E92ED0109C0FA01E80FF91FE857FD4F06
:104EB0001082019699838883888199818E3191052A
:104EC00090F31D921C9290E0DA01A658BD4F06C0E7
:104ED0009F5F2F5F3F4F11963C932E932D913C91F6
:104EE0001197FB01E20FF31F8081882389F7E92ED8
:104EF000E6948B01F42ECA01EC010EC085EA91E123
:104F0000F801608141810E94DF2BC857DD4F888303
:104F10000E5F1F4FC758D2409E012F192E1570F3F8
:104F2000DF91CF911F910F91FF90EF900895EF9235
:104F3000FF920F931F938C0106521E4F82E0F801DF
:104F400080830A5D1140BBEFEB2EB4E0FB2EC8015D
:104F5000B7010E944427C801B7010E942E251F9166
:104F60000F91FF90EF900895CF93DF93EC01C6521D
:104F7000DE4F82E08883CA5DD140CE0160E575E0F6
:104F80000E944427CE0160E575E00E942E25982FEF
:104F9000882331F4C85BDD4F8881CE51D1408883AE
:104FA000892FDF91CF910895BF92CF92DF92EF9238
:104FB000FF920F931F93CF93DF938C01B42EDC01EC
:104FC000A658BD4F11961C921E92ED0109C0F80122
:104FD000E80FF91FE857FD4F1082019699838883E7
:104FE000888199818E31910590F31D921C9290E0F9
:104FF000D801A658BD4F06C09F5F2F5F3F4F119647
:105000003C932E932D913C911197FB01E20FF31FDE
:105010008081882389F7D92ED6947B01C02EC801C0
:10502000EC0110C085EA91E1F701608141810E94A5
:10503000DF2BC857DD4F888322E030E0E20EF31EFD
:10504000C758D240FE01EC19ED1560F30D0D111D8E
:105050000A571D4FF801B082DF91CF911F910F9138
:10506000FF90EF90DF90CF90BF9008951F93CF9364
:10507000DF93EC01162FC652DE4F82E08883CA5DB3
:10508000D140CE016FEE75E0412F0E94D427CE01B2
:105090006FEE75E00E946904CE016FEE75E00E942C
:1050A0002E25882319F4C759DE4F1883DF91CF913D
:1050B0001F910895CF93DF93EC01CB5BDD4F888187
:1050C000C554D240882351F487E79BE060E040E07C
:1050D00056E90E94510487E79BE00BC0813061F4E0
:1050E00089E79BE061E040E056E90E94510489E7CE
:1050F0009BE061E00E941704CE5BDD4F8881C254C3
:10510000D240823011F0853029F464EF71E080E004
:1051100090E004C062E370E080E090E00E94120240
:1051200081E0888380E0DF91CF910895FC016130B8
:1051300021F4E055FD4F608305C0633029F4E0554C
:10514000FD4F1082E05BF240E652FE4F108280E09D
:1051500008951092F8101092F9101092FC1010920D
:10516000FE1008951F93CF93DF93EC01162FC652C4
:10517000DE4F82E08883CA5DD140CE0168EA79E0E3
:10518000412F0E94D427CE0168EA79E00E94690489
:10519000CE0168EA79E00E942E25882319F4C552D1
:1051A000DD4F1883DF91CF911F9108950F93CF9317
:1051B000DF93EC01CE5BDD4F69934993299308831C
:1051C000CD5FD14018822B9618822C961882CE5132
:1051D000DF4F18826D9783E1899388E88883229650
:1051E000199280E2888367968CE3888323968FE305
:1051F00089939FEF9883659623E02883619619929F
:1052000084E0899388E2888327961882C45BDE4F06
:1052100099938EEF88832296199229931992188276
:10522000C45CD2409E0126583D4FF9011182108284
:10523000D9010AC0FE01E80FF91FE953FD4F1082A2
:10524000019611969C938E938D919C911197883025
:10525000910580F3CF52DD4F8EE189931992188228
:1052600023968FEF89931992199288832296188238
:10527000CB5DD240F90111821082DE01A658BD4FEC
:105280000AC0FE01E80FF91FE452FD4F108201969B
:1052900011969C938E938D919C91119780319105DD
:1052A00080F3C451DD4F84E08883C65AD040198210
:1052B00018821D921C92E6961992199219921992CF
:1052C0001992199219921992188219821A821B82C4
:1052D000A99619921882C55DD04092E09883CA526F
:1052E000DF4F81E08883C55DD0409993999398837F
:1052F000CC5DD140CE010E945F09CE010E940E0814
:10530000C055DD4F1882DF91CF910F9108950F9313
:1053100000E00E94D6280F910895882389F4809197
:1053200031119091321180509E4F20913311309164
:105330003411821B930B60E072E00E94E92F089504
:10534000809135119091361180589F4F20913711DF
:1053500030913811821B930B60E870E00E94E92FB6
:1053600008958823D1F440913311509134118091E4
:105370003111909132118417950751F1FA01EC5CCB
:10538000FA4E2081CA01019660E072E00E94E92F86
:10539000909334118093331119C04091371150917B
:1053A000381180913511909136118417950781F04D
:1053B000FA01EC54FB4E2081CA01019660E870E0CE
:1053C0000E94E92F909338118093371130E002C08A
:1053D0002FEF3FEFC9010895882349F4109234114B
:1053E00010923311109232111092311108951092CF
:1053F000381110923711109236111092351108950C
:105400001F920F920FB60F920BB60F9211242F938B
:105410003F934F935F936F937F938F939F93AF933C
:10542000BF93EF93FF934091C600E0913111F0914B
:105430003211CF01019660E072E00E94E92F9C01D9
:1054400080913311909134112817390739F0EC5CB1
:10545000FA4E40833093321120933111FF91EF9136
:10546000BF91AF919F918F917F916F915F914F917C
:105470003F912F910F900BBE0F900FBE0F901F907A
:1054800018951F920F920FB60F920BB60F92112420
:105490002F933F934F935F936F937F938F939F933C
:1054A000AF93BF93EF93FF934091CE00E0913511FE
:1054B000F0913611CF01019660E870E00E94E92F6B
:1054C0009C0180913711909138112817390739F0D4
:1054D000EC54FB4E40833093361120933511FF91ED
:1054E000EF91BF91AF919F918F917F916F915F915C
:1054F0004F913F912F910F900BBE0F900FBE0F90C9
:105500001F901895982F662339F48091C00085FF6D
:10551000FCCF9093C60008958091C80085FFFCCF12
:105520009093CE000895FC0110C03196662339F4A3
:105530008091C00085FFFCCF9093C60006C080918B
:10554000C80085FFFCCF9093CE009081992369F726
:1055500008952F923F924F925F926F927F928F9217
:105560009F92AF92BF92CF92DF92EF92FF920F93F2
:105570001F93DF93CF93CDB7DEB7A1970FB6F89403
:10558000DEBF0FBECDBF6B017C0129013A0109A32B
:10559000611571058105910591F4002341F4809115
:1055A000C00085FFFCCF80E38093C6005BC0809184
:1055B000C80085FFFCCF80E38093CE0053C08824D1
:1055C000992454011E010894211C311C8101080DED
:1055D000191DC701B601A30192010E94FC2FF80119
:1055E00060830894811C911CA11CB11CC701B601E9
:1055F000A30192010E94FC2FC901DA016C017D0117
:10560000C114D104E104F10409F79101280D391DF9
:10561000BE016F5F7F4FD501C4010197A109B10998
:10562000AC01481959091BC0FA01E20FF31FE081D0
:10563000EA3010F4E05D01C0E95CF9A1FF2339F420
:105640008091C00085FFFCCFE093C60006C080912A
:10565000C80085FFFCCFE093CE0021503040621798
:10566000730711F7A1960FB6F894DEBF0FBECDBF3A
:10567000CF91DF911F910F91FF90EF90DF90CF902E
:10568000BF90AF909F908F907F906F905F904F9062
:105690003F902F900895EF92FF920F931F937B01FD
:1056A0008C014423C1F588E00E94B502C801B7010E
:1056B00022E030E040E050E00E941E30205E3E4597
:1056C000484F5F4FCA01B901A80197010E941E30DF
:1056D000C901DA010197A109B109292F3A2F4B2FEE
:1056E000552747FD5A950196A11DB11D2093C50070
:1056F00081508093C4008091C10080618093C1007B
:105700008091C10088608093C1008091C100806851
:105710008093C10037C080E10E94B502C801B70183
:1057200022E030E040E050E00E941E30205E3E4526
:10573000484F5F4FCA01B901A80197010E941E306E
:10574000C901DA010197A109B109292F3A2F4B2F7D
:10575000552747FD5A950196A11DB11D2093CD00F7
:1057600081508093CC008091C90080618093C900F2
:105770008091C90088608093C9008091C9008068C9
:105780008093C9001F910F91FF90EF9008951092A0
:105790003B111092551110926F11089582E090E024
:1057A000A0E0B0E08093871190938811A0938911B5
:1057B000B0938A1110929E11089508950895683348
:1057C000A1F1693380F4643341F1653338F4623315
:1057D00001F1633300F56133D1F417C0663309F189
:1057E000673308F51CC0633441F1643438F4613424
:1057F00001F1623400F5693351F419C0653409F1DF
:105800006534E8F0663419F41EC081E01DC080E004
:105810001BC082E019C083E017C084E015C085E09A
:1058200013C086E011C087E00FC088E00DC089E09A
:105830000BC08AE009C08BE007C08CE005C08DE09A
:1058400003C08EE001C08FE04733A1F1483380F4FC
:10585000433341F1443338F44133F1F0423300F53E
:105860004033E1F51BC0453309F1463308F51CC050
:10587000423441F1433438F4493301F14933E0F023
:10588000413461F51DC0443409F14434E8F0453435
:10589000F9F04634F9F0089591E01DC090E01BC086
:1058A00092E019C093E017C094E015C095E013C0D2
:1058B00096E011C097E00FC098E00DC099E00BC0D2
:1058C0009AE009C09BE007C09CE005C09DE003C0D2
:1058D0009EE001C09FE08295807F890F0895089522
:1058E0008FE261E00E94260384E261E00E942603C9
:1058F00085E261E00E9426038FE261E00E9444039A
:1059000084E261E00E94440385E261E00E94440376
:1059100008950F931F93162F042F8FE261E00E94CA
:10592000260384E261E00E94260385E261E00E9492
:1059300026038FE261E00E94440384E2612F0E940B
:10594000440385E2602F0E9444031F910F91089544
:1059500008951F920F920FB60F920BB60F9211245B
:105960002F933F934F935F936F937F938F939F9367
:10597000AF93BF93EF93FF938091B90090E0887F3E
:1059800090708036910509F4CAC081369105CCF536
:105990008832910509F47BC089329105B4F48031D5
:1059A000910509F46FC0813191053CF4009709F429
:1059B00014C1089709F01AC165C08831910509F42E
:1059C00066C0809709F012C17DC08034910509F44A
:1059D0008DC08134910544F48033910509F472C07F
:1059E000C89709F003C1F5C08035910509F472C06C
:1059F0008835910509F47FC08834910509F0F6C017
:105A000086C08839910509F4E0C089399105ECF424
:105A10008837910509F483C0893791054CF488369D
:105A2000910509F47CC08037910509F0DFC077C08B
:105A30008838910509F4C9C08039910509F475C009
:105A40008038910509F0D2C070C0803B910509F4FF
:105A500093C0813B91054CF4803A910509F477C0DD
:105A6000883A910509F0C2C087C0803C910509F4CD
:105A7000B0C0883C910509F4ACC0883B910509F0A1
:105A8000B5C08FC08091E6128093BB009CC09091FE
:105A90000B1380910C13981768F490910B13E92F56
:105AA000F0E0E551FD4E80818093BB009F5F9093B5
:105AB0000B1389C085ED8093BC008091BC0084FDF0
:105AC000FCCF92C085ED8093BC008091BC0084FD2A
:105AD000FCCF8AC080910B139091BB00E82FF0E0BF
